{
  "_format": "hh-sol-artifact-1",
  "contractName": "MultiSender",
  "sourceName": "contracts/utils/MultiSender.sol",
  "abi": [
    {
      "inputs": [],
      "stateMutability": "nonpayable",
      "type": "constructor"
    },
    {
      "anonymous": false,
      "inputs": [
        {
          "indexed": true,
          "internalType": "address",
          "name": "sender",
          "type": "address"
        },
        {
          "indexed": false,
          "internalType": "uint256",
          "name": "value",
          "type": "uint256"
        }
      ],
      "name": "MultiSend",
      "type": "event"
    },
    {
      "inputs": [
        {
          "internalType": "address[]",
          "name": "addrs",
          "type": "address[]"
        }
      ],
      "name": "multiSend",
      "outputs": [],
      "stateMutability": "payable",
      "type": "function"
    },
    {
      "stateMutability": "payable",
      "type": "receive"
    }
  ],
  "bytecode": "0x608060405234801561001057600080fd5b50610371806100206000396000f3fe6080604052600436106100225760003560e01c806399d136f51461002e57600080fd5b3661002957005b600080fd5b61004161003c366004610286565b610043565b005b6000341161006c5760405162461bcd60e51b8152600401610063906102c1565b60405180910390fd5b600081511161007a57600080fd5b60008151346100899190610313565b905060005b82518110156100fc578281815181106100a9576100a9610327565b60200260200101516001600160a01b03166108fc839081150290604051600060405180830381858888f193505050501580156100e9573d6000803e3d6000fd5b50806100f48161033d565b91505061008e565b50336001600160a01b03167f493bd34b686439e60df5953cee1571b51c3d1ce8c72a3cd9c8c455b353f45330346040516101369190610358565b60405180910390a25050565b634e487b7160e01b600052604160045260246000fd5b601f19601f830116810181811067ffffffffffffffff8211171561017e5761017e610142565b6040525050565b600061019060405190565b905061019c8282610158565b919050565b600067ffffffffffffffff8211156101bb576101bb610142565b5060209081020190565b60006001600160a01b0382165b92915050565b6101e1816101c5565b81146101ec57600080fd5b50565b80356101d2816101d8565b600061020d610208846101a1565b610185565b8381529050602080820190840283018581111561022c5761022c600080fd5b835b81811015610250578061024188826101ef565b8452506020928301920161022e565b5050509392505050565b600082601f83011261026e5761026e600080fd5b813561027e8482602086016101fa565b949350505050565b60006020828403121561029b5761029b600080fd5b813567ffffffffffffffff8111156102b5576102b5600080fd5b61027e8482850161025a565b602080825281016101d28160088152676e6f2076616c756560c01b602082015260400190565b634e487b7160e01b600052601260045260246000fd5b634e487b7160e01b600052601160045260246000fd5b600082610322576103226102e7565b500490565b634e487b7160e01b600052603260045260246000fd5b6000600019821415610351576103516102fd565b5060010190565b818152602081016101d256fea164736f6c6343000809000a",
  "linkReferences": {},
  "deployedLinkReferences": {}
}